:020000040800F2
:100000000000042075120008450800084708000891
:10001000490800084B0800084D08000800000000CF
:100020000000000000000000000000004F08000871
:100030005108000800000000530800085508000897
:10004000C5120008C5120008C5120008C512000834
:10005000C5120008C5120008C5120008C512000824
:10006000C5120008C5120008C5120008C512000814
:10007000C5120008C5120008C5120008C512000804
:10008000C5120008C5120008C5120008C5120008F4
:10009000C5120008C5120008C5120008C5120008E4
:1000A000C5120008C5120008C5120008C5120008D4
:1000B000C5120008C5120008C5120008C5120008C4
:1000C000C5120008C5120008C5120008C5120008B4
:1000D000C5120008C5120008C5120008C5120008A4
:1000E000C5120008C5120008C5120008C512000894
:1000F000C5120008C5120008C5120008C512000884
:10010000C5120008C5120008C5120008C512000873
:10011000C5120008C5120008C5120008C512000863
:10012000C5120008C5120008C5120008C512000853
:10013000C5120008000000000000000000000000E0
:10014000000000000000000000000000C5120008D0
:10015000C5120008C5120008C5120008C512000823
:10016000C5120008C5120008C5120008C512000813
:10017000C5120008C51200080000000000000000C1
:10018000C5120008C5120008C5120008C5120008F3
:10019000C5120008C512000800000000C5120008C2
:1001A000000000000000000000000000C512000870
:1001B000C5120008C5120008000000000000000081
:1001C000000000000000000000000000000000002F
:1001D000000000000000000000000000C512000840
:1001E00010B5054C237833B9044B13B10448AFF371
:1001F00000800123237010BD70000020000000006B
:10020000481D000808B5034B1BB103490348AFF371
:10021000008008BD0000000074000020481D000898
:1002200053B94AB9002908BF00281CBF4FF0FF315D
:100230004FF0FF3000F074B9ADF1080C6DE904CE59
:1002400000F006F8DDF804E0DDE9022304B07047B1
:100250002DE9F047089D04468E46002B4DD18A4279
:10026000944669D9B2FA82F252B101FA02F3C2F1AC
:10027000200120FA01F10CFA02FC41EA030E94403D
:100280004FEA1C48210CBEFBF8F61FFA8CF708FB5E
:1002900016E341EA034306FB07F199420AD91CEB36
:1002A000030306F1FF3080F01F81994240F21C8168
:1002B000023E63445B1AA4B2B3FBF8F008FB1033B0
:1002C00044EA034400FB07F7A7420AD91CEB0404E5
:1002D00000F1FF3380F00A81A74240F207816444B5
:1002E000023840EA0640E41B00261DB1D44000233A
:1002F000C5E900433146BDE8F0878B4209D9002D9E
:1003000000F0EF800026C5E9000130463146BDE827
:10031000F087B3FA83F6002E4AD18B4202D3824291
:1003200000F2F980841A61EB030301209E46002D40
:10033000E0D0C5E9004EDDE702B9FFDEB2FA82F295
:10034000002A40F09280A1EB0C014FEA1C471FFAF3
:100350008CFE0126200CB1FBF7F307FB131140EADA
:1003600001410EFB03F0884208D91CEB010103F1A7
:10037000FF3802D2884200F2CB804346091AA4B269
:10038000B1FBF7F007FB101144EA01440EFB00FE3D
:10039000A64508D91CEB040400F1FF3102D2A645A2
:1003A00000F2BB800846A4EB0E0440EA03409CE741
:1003B000C6F12007B34022FA07FC4CEA030C20FAEE
:1003C00007F401FA06F31C43F9404FEA1C4900FA0E
:1003D00006F3B1FBF9F8200C1FFA8CFE09FB18118B
:1003E00040EA014108FB0EF0884202FA06F20BD9FE
:1003F0001CEB010108F1FF3A80F08880884240F24E
:100400008580A8F102086144091AA4B2B1FBF9F091
:1004100009FB101144EA014100FB0EFE8E4508D98C
:100420001CEB010100F1FF346CD28E456AD9023811
:10043000614440EA0840A0FB0294A1EB0E01A142F6
:10044000C846A64656D353D05DB1B3EB080261EB64
:100450000E0101FA07F722FA06F3F1401F43C5E93E
:10046000007100263146BDE8F087C2F12003D84074
:100470000CFA02FC21FA03F3914001434FEA1C47B6
:100480001FFA8CFEB3FBF7F007FB10360B0C43EAA8
:10049000064300FB0EF69E4204FA02F408D91CEB58
:1004A000030300F1FF382FD29E422DD90238634456
:1004B0009B1B89B2B3FBF7F607FB163341EA0341F6
:1004C00006FB0EF38B4208D91CEB010106F1FF3845
:1004D00016D28B4214D9023E6144C91A46EA00463C
:1004E00038E72E46284605E70646E3E61846F8E6CE
:1004F0004B45A9D2B9EB020864EB0C0E0138A3E717
:100500004646EAE7204694E74046D1E7D0467BE7F7
:10051000023B614432E7304609E76444023842E76F
:10052000704700BF154B1A6B42F008021A631A6C31
:1005300042F480221A64A3F530535A6A42F007024B
:100540005A625A6A42F070025A621A6822F47022A1
:100550001A601A6842F420221A60094BDB68094BC2
:10056000002283F8272380225A60074B40F2D512DD
:10057000DA601A6842F00D021A60704700380240D3
:1005800000ED00E000E100E000480040034BDB69C3
:1005900013F0800FFAD0014B98627047004800407A
:1005A00010B50446C0B2FFF7F1FF204610BD0000B1
:1005B00082B0064B1A6B42F080021A631B6B03F089
:1005C00080030193019B02B0704700BF00380240D6
:1005D00010B584B00024009401940294039400F0B8
:1005E00083FA01238DF800308DF8014001941F2219
:1005F0008DF8082087228DF809208DF80A408DF8A3
:100600000B408DF80C308DF80D308DF80E408DF8C4
:100610000F40684600F086FA042000F073FA04B038
:1006200010BD000008B5024800F0D0FF08BD00BFB3
:10063000641D000808B5024800F0C8FF08BD00BFEF
:10064000601D000808B5024800F0C0FF08BD00BFEB
:10065000681D000872B6FEE700B595B03022002193
:1006600008A800F05DFE002303930493059306930E
:100670000793214A116C41F080511164126C02F011
:1006800080520192019A1D4A116841F44041116063
:10069000126802F440420292029A02220892012158
:1006A0000B9110210C910E920F9308231093D823D5
:1006B00011931292139208A800F0A2FAB0B900F0B8
:1006C00061FAA8B90F23039302230493002305932F
:1006D0004FF4A05306934FF480530793072103A8C8
:1006E00000F012FD30B915B05DF804FBFFF7B2FF62
:1006F000FFF7B0FFFFF7AEFF003802400070004088
:1007000000B589B0FFF764FF00F080F9FFF7A4FFA0
:10071000164B1B68164AA2FB03239B09013BB3F14E
:10072000807F0AD24FF0E0225361124BF02183F810
:1007300023100023936107231361FFF739FFFFF7AD
:10074000F1FE20220021684600F0EAFD0A4907A8D0
:1007500000F04CF8094907A800F048F8084906A835
:1007600000F044F8684600F017F8FBE700000020AE
:10077000D34D621000ED00E0250600084506000894
:100780003506000810B5044602E0236898476468FF
:10079000002CFAD110BD000038B5054602E0114B1F
:1007A00000221A700F4B1B78002BF8D0002401E0B8
:1007B0000134E4B2072C13D80B4B1B78DBB2234176
:1007C00013F0010FF4D055F82400FFF7DBFF0123ED
:1007D00003FA04F204490B7823EA02030B70E7E7FB
:1007E00038BD00BF8C0000209000002038B50446C2
:1007F0000D46082000F08CFD236805600022426051
:100800002BB11A465B68002BFBD1506038BD2060CD
:10081000FCE7000082B00A4B1A6C42F080521A6466
:100820001A6C02F080520092009A5A6C42F4804294
:100830005A645B6C03F480430193019B02B07047E0
:1008400000380240FEE7FEE7FEE7FEE7FEE77047FE
:10085000704770473A4A138801339BB21380B3F54F
:100860007A7F02D3134600221A80364A137843F067
:1008700001031370324B1B8813F0010F04D1114692
:10088000127842F002020A702F4AA2FB0312920869
:1008900002EB82029A1A92B222B92A490A7842F0ED
:1008A00004020A70284AA2FB0312D20802EB820259
:1008B0005100591A89B221B922490A7842F0080236
:1008C0000A70214AA2FB0312120902EB8202910074
:1008D000591A89B221B91B490A7842F010020A70EC
:1008E0001A4AA2FB03125209642101FB123292B28E
:1008F00022B914490A7842F020020A70134AA2FB76
:1009000003129209C82101FB123292B222B90D4999
:100910000A7842F040020A700D4AA2FB03129209C3
:100920004FF47A7101FB12339BB223B9054A137855
:1009300043F080031370074B01221A70704700BF09
:100940008E00002090000020CDCCCCCC1F85EB5138
:10095000D34D62108C00002070B50C461646002561
:1009600006E0AFF30080214601F8010B01350C468B
:10097000B542F6DB304670BD70B50C461646002514
:1009800004E014F8010BFFF70BFE0135B542F8DB6C
:10099000304670BD4FF0FF3070474FF400534B604E
:1009A000002070470120704700207047034AD2F8AA
:1009B000883043F47003C2F88830704700ED00E0DF
:1009C00010B504460E4B18784FF47A73B3FBF0F36E
:1009D0000C4A1068B0FBF3F000F072F868B90F2C05
:1009E00001D901200AE0002221464FF0FF3000F03B
:1009F00031F8054B1C60002000E0012010BD00BF55
:100A000004000020000000200800002008B503209A
:100A100000F00EF80F20FFF7D3FFFFF7FBFE0020DA
:100A200008BD0000014B1868704700BF940000200B
:100A30000649CB6823F4E0631B041B0C000200F49E
:100A4000E0600343024A1A43CA60704700ED00E0C9
:100A50000000FA0500B5174BDB68C3F30223C3F1AE
:100A6000070CBCF1040F28BF4FF0040C03F1040E77
:100A7000BEF1060F14D9033B4FF0FF3E0EFA0CFCFB
:100A800021EA0C0199400EFA03F322EA0303194309
:100A9000002807DB0901C9B2074B19545DF804FBB4
:100AA0000023E9E700F00F000901C9B2034B195414
:100AB000F4E700BF00ED00E000E400E014ED00E02A
:100AC0000138B0F1807F0BD24FF0E0235861054A26
:100AD000F02182F823100020986107221A617047E4
:100AE0000120704700ED00E0BFF35F8F044B5A6AAE
:100AF00022F480325A620022C3F89420704700BF6B
:100B000000ED00E040F00100054BC3F894005A6A84
:100B100042F480325A62BFF34F8FBFF36F8F70473A
:100B200000ED00E04278164BC3F898200378FBB143
:100B30004368134AC2F89C30017BC37A1B0643EA20
:100B40000173817A43EAC143417B43EA8143817B5C
:100B500043EA4143C17B43EA0143417A43EA01232B
:100B6000017A43EA410301780B43C2F8A030704791
:100B7000034B0022C3F89C20C3F8A020704700BF9D
:100B800000ED00E010B582B01B4B1A6C42F08052B1
:100B90001A641B6C03F080530193019B174A13687E
:100BA00043F480331360FFF73DFF0446134B5B684B
:100BB00013F4803F08D1FFF735FF001BB0F57A7FB3
:100BC000F4D9032002B010BD0C4A136843F400337B
:100BD0001360FFF727FF0446084B5B6813F4003FE0
:100BE00007D1FFF71FFF001BB0F57A7FF4D9032070
:100BF000E8E70020E6E700BF003802400070004050
:100C0000002800F0FF8170B582B00446036813F03D
:100C1000010F29D0954B9B6803F00C03042B1AD0CD
:100C2000924B9B6803F00C03082B0FD06368B3F55D
:100C3000803F40D0002B54D18C4B1A6822F4803274
:100C40001A601A6822F480221A6039E0874B5B68C8
:100C500013F4800FEAD0854B1B6813F4003F03D0D8
:100C60006368002B00F0D081236813F0020F74D06A
:100C70007E4B9B6813F00C0F5ED07C4B9B6803F09F
:100C80000C03082B53D0E368002B00F08980774ACF
:100C9000136843F001031360FFF7C4FE0546734B6E
:100CA0001B6813F0020F72D1FFF7BCFE401B022835
:100CB000F5D90320ADE16D4A136843F48033136026
:100CC00063682BB3FFF7AEFE0546684B1B6813F451
:100CD000003FC9D1FFF7A6FE401B6428F5D90320C9
:100CE00097E1B3F5A02F09D0604B1A6822F4803247
:100CF0001A601A6822F480221A60E1E75B4B1A68D6
:100D000042F480221A601A6842F480321A60D7E7EF
:100D1000FFF788FE0546554B1B6813F4003FA3D030
:100D2000FFF780FE401B6428F5D9032071E14F4B8B
:100D30005B6813F4800FA6D14C4B1B6813F0020FB5
:100D400003D0E368012B40F06181484A136823F027
:100D5000F803216943EAC1031360236813F0080F05
:100D600046D0636983B3414A536F43F0010353672D
:100D7000FFF758FE05463D4B5B6F13F0020F37D16E
:100D8000FFF750FE401B0228F5D9032041E1374A06
:100D9000136823F0F803216943EAC1031360DCE719
:100DA000324A136823F001031360FFF73BFE054648
:100DB0002E4B1B6813F0020FCFD0FFF733FE401B02
:100DC0000228F5D9032024E1284A536F23F00103B8
:100DD0005367FFF727FE0546244B5B6F13F0020FA6
:100DE00006D0FFF71FFE401B0228F5D9032010E1B3
:100DF000236813F0040F7DD01C4B1B6C13F0805F35
:100E00001ED11A4B1A6C42F080521A641B6C03F00C
:100E100080530193019B0125154B1B6813F4807FC0
:100E200010D0A368012B25D0002B3BD10F4B1A6F9C
:100E300022F001021A671A6F22F004021A671EE0FC
:100E40000025E9E70A4A136843F480731360FFF74B
:100E5000E9FD0646064B1B6813F4807FE1D1FFF7DE
:100E6000E1FD801B6428F5D90320D2E00038024060
:100E7000007000406E4A136F43F001031367A368CC
:100E800033B3FFF7CFFD0646694B1B6F13F0020F1C
:100E90002FD1FFF7C7FD801B41F288339842F3D969
:100EA0000320B6E0052B09D0614B1A6F22F0010236
:100EB0001A671A6F22F004021A67E0E75C4B1A6F98
:100EC00042F004021A671A6F42F001021A67D6E76D
:100ED000FFF7A8FD0646564B1B6F13F0020F08D014
:100EE000FFF7A0FD801B41F288339842F3D903201D
:100EF0008FE0FDB9A369002B00F08A804C4A92680C
:100F000002F00C02082A58D0022B19D0484A136864
:100F100023F080731360FFF785FD0446444B1B6884
:100F200013F0007F47D0FFF77DFD001B0228F5D9A5
:100F300003206EE03E4A136C23F080531364D9E71C
:100F40003B4A136823F080731360FFF76BFD05467F
:100F5000374B1B6813F0007F06D0FFF763FD401B83
:100F60000228F5D9032054E0E369226A1343626A38
:100F700043EA8213A26A5208013A43EA0243E26A50
:100F800043EA026343F00053294A5360136843F075
:100F900080731360FFF746FD0446254B1B6813F072
:100FA000007F06D1FFF73EFD001B0228F5D9032084
:100FB0002FE000202DE000202BE01D4A5268012B7D
:100FC00029D002F48003E1698B4226D102F03F036D
:100FD000216A8B4223D1616A47F6C0731340B3EB99
:100FE000811F1ED102F44031A36A5B08013BB1EBC3
:100FF000034F18D102F07062E36AB2EB036F14D1B1
:10100000002006E001207047012002E0012000E0FE
:10101000002002B070BD0120FBE70120F9E70120AC
:10102000F7E70120F5E70120F3E70120F1E700BF32
:101030000038024008B5314B9B6803F00C03042BC9
:1010400057D0082B57D12D4B5A6802F03F025B68EE
:1010500013F4800F2AD0294B5968C1F3881C4FEA3A
:101060004C11B1EB0C006EEB0E0E4FEA8E1343EAFF
:1010700090638101091A63EB0E03DB0043EA5173AD
:10108000C90011EB0C0C43F10003590200234FEA95
:101090004C2041EADC51FFF7C3F8184B5B68C3F3FF
:1010A000014301335B00B0FBF3F025E0134B5968BB
:1010B000C1F3881C4FEA4C11B1EB0C006EEB0E0E25
:1010C0004FEA8E1343EA90638101091A63EB0E0322
:1010D000DB0043EA5173C90011EB0C0C43F1000330
:1010E000990200234FEA8C2041EA9C51FFF798F8BF
:1010F000D3E7034800E0034808BD00BF00380240C2
:1011000000127A000024F400002800F0A08070B5DE
:101110000D460446524B1B6803F00F038B420BD263
:101120004F4A136823F00F030B431360136803F057
:101130000F038B4240F08D80236813F0020F17D00D
:1011400013F0040F04D0474A936843F4E0539360CC
:10115000236813F0080F04D0424A936843F46043B5
:101160009360404A936823F0F003A1680B439360B7
:10117000236813F0010F31D06368012B20D0022BBC
:1011800025D0384A126812F0020F64D035498A68B7
:1011900022F0030213438B60FFF744FC0646314BF9
:1011A0009B6803F00C036268B3EB820F16D0FFF765
:1011B00039FC801B41F288339842F0D9032045E086
:1011C000284A126812F4003FE0D101203EE0254A8F
:1011D000126812F0007FD9D1012037E0204B1B6844
:1011E00003F00F03AB420AD91D4A136823F00F0323
:1011F0002B431360136803F00F03AB422DD1236818
:1012000013F0040F06D0174A936823F4E053E16803
:101210000B439360236813F0080F07D0114A9368BB
:1012200023F46043216943EAC1039360FFF702FF9F
:101230000C4B9B68C3F303130B4AD35CD8400B4B96
:1012400018600B4B1868FFF7BBFB002070BD012036
:1012500070470120FAE70120F8E70120F6E700BF18
:10126000003C024000380240741D000800000020CD
:1012700008000020DFF834D00D480E490E4A002344
:1012800002E0D458C4500433C4188C42F9D30B4A3A
:101290000B4C002301E013600432A242FBD3FFF7A2
:1012A00085FB00F011F8FFF72BFA704700000420CF
:1012B0000000002070000020F81D000870000020D1
:1012C000AC000020FEE7000070B50D4D0D4C641B16
:1012D000A4100026A64209D10B4D0C4C00F034FDA1
:1012E000641BA4100026A64205D170BD55F8043B2E
:1012F00098470136EEE755F8043B98470136F2E788
:10130000F01D0008F01D0008F01D0008F41D000885
:10131000024B0146186800F077B800BF0C000020AF
:1013200002440346934200D1704703F8011BF9E7DA
:1013300037B5002944D051F8043C0190002BA1F1AD
:101340000404B8BFE41800F039FC1E4A0198136881
:1013500033B96360146003B0BDE8304000F034BCC2
:10136000A34208D9256861198B4201BF19685B68DF
:1013700049192160EDE71A465B680BB1A342FAD91F
:1013800011685518A5420BD1246821445418A34272
:101390001160E0D11C685B68536021441160DAE79A
:1013A00002D90C230360D6E7256861198B4204BF7C
:1013B00019685B68636004BF491921605460CAE71B
:1013C00003B030BD9800002070B50E4E0C46316859
:1013D000054611B900F002F930602146284600F0B8
:1013E000FDF8431C0AD0C41C24F00304A04207D01B
:1013F000211A284600F0F2F8013001D14FF0FF34F5
:10140000204670BD9C0000202DE9F041CD1C25F048
:10141000030508350C2D38BF0C25002D074601DBD0
:10142000A94205D90C233B6000263046BDE8F08177
:101430002E4E00F0C3FB33681C4634BB29463846A9
:10144000FFF7C2FF431C04464DD134682646002EE8
:1014500040D123683146384604EB030800F0BEF85B
:1014600080453AD1216803356D1A25F0030508350A
:101470000C2D38BF0C2529463846FFF7A5FF013053
:101480002BD023682B4423600EE02268521B1ED40D
:101490000B2A16D96119A342256018BF59606368E9
:1014A00008BF316062514B60384604F10B0600F012
:1014B0008BFB26F00706231DF21AB6D09B1BA35008
:1014C000B3E76268A3420CBF32605A60ECE7234680
:1014D0006468B2E734467668B9E70C233B60384667
:1014E00000F072FBA1E72560DEE700BF9800002056
:1014F00070B50E46054618B183690BB900F058FA6D
:10150000AB69AC6813B9284600F052FA2C4B9C42E8
:1015100020D16C68636EDB0705D4A389980502D4DB
:10152000A06D00F0E3FAA38919071DD52369DBB18B
:10153000013EA36816F8011F013BA36039BB002BD5
:1015400038DA22460A21284600F058F8013011D036
:101550000A2511E01B4B9C4201D1AC68DAE71A4B1B
:101560009C4208BFEC68D5E72146284600F098F871
:101570000028DDD04FF0FF35636EDA0705D4A3896C
:101580009B0502D4A06D00F0B2FA284670BD002B76
:1015900004DAA2699A4206DC0A2904D023685A1C9C
:1015A00022601970C5E72246284600F027F801306E
:1015B000BFD1DFE723680A255A1C22601D70DBE7D4
:1015C000A81D0008C81D0008881D0008024B014620
:1015D0001868FFF78DBF00BF0C00002038B5064D1E
:1015E0000023044608462B6000F0A0FB431C02D1F8
:1015F0002B6803B1236038BDA4000020F8B50E4667
:101600001446054618B183690BB900F0D1F9214B96
:101610009C422BD16C68A369A360A3891A072FD5BC
:1016200023696BB323692068C01A6369F6B28342E9
:10163000374604DC2146284600F026F930BBA36873
:10164000013BA36023685A1C22601E70636901304D
:10165000834204D0A389DB0706D50A2E04D1214694
:10166000284600F011F988B93846F8BD0A4B9C426B
:1016700001D1AC68CFE7094B9C4208BFEC68CAE7D0
:101680002146284600F00CF80028CBD04FF0FF3759
:10169000EAE700BFA81D0008C81D0008881D000853
:1016A000324B70B51D6806460C4625B1AB6913B9BF
:1016B000284600F07DF92E4B9C420FD16C68A3891F
:1016C000B4F90C2019072CD4DD0611D4092333609A
:1016D00042F04003A3814FF0FF303EE0254B9C4297
:1016E00001D1AC68EBE7244B9C4208BFEC68E6E70D
:1016F000580712D5616B41B104F14403994202D0FD
:101700003046FFF715FE00236363A38923F024030B
:10171000A3810023636023692360A38943F0080346
:10172000A38123694BB9A38903F42073B3F5007F28
:1017300003D02146304600F001FAA089B4F90C200C
:1017400010F001030AD00023A36063695B42A36128
:10175000236943B910F08000BAD170BD810758BF2A
:101760006369A360F4E70020F7E700BF0C000020E6
:10177000A81D0008C81D0008881D00088A892DE9D9
:10178000F041054610070C4658D44B68002B05DC89
:101790000B6C002B02DC0020BDE8F081E66A002E15
:1017A000F9D0002312F480522F682B6032D0606D84
:1017B000A3895A0705D56368C01A636B0BB1236C04
:1017C000C01A00230246E66A216A2846B047431C35
:1017D000A38906D129681D292CD82A4ACA40D607D0
:1017E00028D500226260D9042269226004D5421CF7
:1017F00001D12B6803B96065616B2F600029CAD0E5
:1018000004F14403994202D02846FFF791FD0020DD
:101810006063C1E7216A01232846B047411CC7D154
:101820002B68002BC4D01D2B01D0162B01D12F60AB
:10183000B1E7A38943F04003A381ADE70F69002F0F
:10184000A9D093070E6808BF4B690F6018BF00232B
:10185000A6EB07088B60B8F1000F9CDD216AA66A31
:1018600043463A462846B047002806DCA38943F0A1
:101870004003A3814FF0FF308EE70744A8EB000838
:10188000E9E700BF0100402038B50B6905460C466A
:1018900013B90025284638BD18B183690BB900F08B
:1018A00087F8144B9C421BD16C68B4F90C30002BA8
:1018B000EFD0626ED00704D4990502D4A06D00F079
:1018C00015F928462146FFF759FF636EDA070546EA
:1018D000E0D4A3899B05DDD4A06D00F008F9D9E719
:1018E000054B9C4201D1AC68DFE7044B9C4208BF2A
:1018F000EC68DAE7A81D0008C81D0008881D00086C
:10190000002310B50446C0E90033C0E90433836006
:1019100081814366C2818361194608225C30FFF7EA
:10192000FFFC054B6362054BA362054BE362054B6D
:101930002462236310BD00BFD51B0008F71B0008FD
:101940002F1C0008531C0008014900F0AFB800BF6D
:101950008918000870B568224D1E55430E4605F1E2
:101960007401FFF751FD044640B10021C0E90016A3
:101970000C30A06005F16802FFF7D2FC204670BD74
:10198000014800F0B3B800BFA1000020014800F0FA
:10199000AEB800BFA1000020014800F0A7B800BF0A
:1019A000A2000020014800F0A2B800BFA200002061
:1019B00010B50446FFF7F0FFA3691BB1BDE8104066
:1019C000FFF7F0BFC4E912332365134B134A1B68BA
:1019D000A262A34204BF0123A361204600F020F8C5
:1019E0006060204600F01CF8A060204600F018F867
:1019F0000022E06004216068FFF782FFA0680122F6
:101A00000921FFF77DFFE06802221221FFF778FF2E
:101A10000123A361D2E700BF841D00084919000813
:101A2000F8B50746FFF7ACFF1E4B1E68B36913B944
:101A30003046FFF7BDFF4836D6E90134013B03D5F8
:101A400033680BB33668F7E7B4F90C50D5B9164BC9
:101A5000E36004F15800656600F047F8FFF796FF71
:101A6000C4E90155C4E904552560A5610822294649
:101A700004F15C00FFF754FCC4E90D55C4E91255AC
:101A80002046F8BD6834D9E704213846FFF762FFE5
:101A9000044630600028D5D1FFF778FF0C233B6067
:101AA000EEE700BF841D00080100FFFF2DE9F843A9
:101AB0000646884600F148040027D4E90195B9F1AB
:101AC000010905D52468002CF7D13846BDE8F88314
:101AD000AB89012B07D9B5F90E30013303D0294664
:101AE0003046C04707436835E9E77047704770479D
:101AF00070B50E46B1F90E10002996B014461D4679
:101B000008DAB6F90C3000222A601A0610D44FF415
:101B100080630EE06A4600F0C3F80028F1DB019A0A
:101B200002F47042A2F500535A425A412A60EEE78D
:101B300040230020236016B070BD00008B8973B570
:101B40009D0706460C4607D504F147032360236131
:101B50000123636102B070BD01AB6A46FFF7C8FFA5
:101B6000009905463046FFF74FFC48B9B4F90C30F0
:101B70009A05EFD423F0030343F00203A381E3E7C4
:101B80000D4BB362A389206043F08003A381009BC7
:101B90006361019B20615BB1B4F90E10304600F027
:101BA00091F828B1A38923F0030343F00103A38133
:101BB000A0890543A581CDE7491900080148FFF731
:101BC00095BF00BFA00000200148FFF790BF00BFF5
:101BD000A000002010B50C46B1F90E1000F094F8EA
:101BE0000028ABBF636DA3891B1823F48053ACBFDF
:101BF0006365A38110BD2DE9F0411F468B89DB058C
:101C000005460C46164605D5B1F90E1002230022F2
:101C100000F068F8A389B4F90E1023F48053A3816F
:101C200032463B462846BDE8F04100F017B810B5F3
:101C30000C46B1F90E1000F055F8431CA38915BFEE
:101C4000606523F4805343F48053A38118BFA381BC
:101C500010BDB1F90E1000F013B8000038B5074DF3
:101C600004460846114600222A601A46FEF784FE02
:101C7000431C02D12B6803B1236038BDA4000020AF
:101C800038B5064D0023044608462B60FEF782FE59
:101C9000431C02D12B6803B1236038BDA40000208F
:101CA00038B5074D00230446084611462B60FEF761
:101CB00074FE431C02D12B6803B1236038BD00BF02
:101CC000A400002038B5064D0023044608462B60CA
:101CD000FEF768FE431C02D12B6803B1236038BDB8
:101CE000A400002038B5074D0446084611460022DE
:101CF0002A601A46FEF758FE431C02D12B6803B136
:101D0000236038BDA400002038B5074D04460846BE
:101D1000114600222A601A46FEF71EFE431C02D11D
:101D20002B6803B1236038BDA4000020044A054994
:101D30001368002B08BF0B46184410601846704704
:101D4000A8000020B0000020F8B500BFF8BC08BC17
:101D50009E467047F8B500BFF8BC08BC9E46704769
:101D60004F4F4F4F4F0000004F4F4F4F4F4F4F4F70
:101D70004F4F0000000000000000000001020304BB
:101D80000607080910000020000000000000000005
:101D90000000000000000000000000000000000043
:101DA0000000000000000000000000000000000033
:101DB0000000000000000000000000000000000023
:101DC0000000000000000000000000000000000013
:101DD0000000000000000000000000000000000003
:081DE0000000000000000000FB
:081DE80068E4FF7F0100000028
:041DF00005020008E0
:041DF400E101000801
:101DF8000024F40001000000100000001000002082
:101E080000000000A81D0008C81D0008881D000863
:101E180000000000000000000000000000000000BA
:101E280000000000000000000000000000000000AA
:101E3800000000000000000000000000000000009A
:101E4800000000000000000000000000000000008A
:101E5800000000000000000000000000000000007A
:040000050800127568
:00000001FF
